{
  "_format": "hh-sol-artifact-1",
  "contractName": "MyContract",
  "sourceName": "contracts/MyContract.sol",
  "abi": [
    {
      "anonymous": false,
      "inputs": [
        {
          "indexed": false,
          "internalType": "uint8",
          "name": "version",
          "type": "uint8"
        }
      ],
      "name": "Initialized",
      "type": "event"
    },
    {
      "anonymous": false,
      "inputs": [
        {
          "indexed": false,
          "internalType": "uint256",
          "name": "oldValue",
          "type": "uint256"
        },
        {
          "indexed": false,
          "internalType": "uint256",
          "name": "newValue",
          "type": "uint256"
        }
      ],
      "name": "StateVariableChanged",
      "type": "event"
    },
    {
      "inputs": [],
      "name": "constantValue",
      "outputs": [
        {
          "internalType": "uint256",
          "name": "",
          "type": "uint256"
        }
      ],
      "stateMutability": "view",
      "type": "function"
    },
    {
      "inputs": [],
      "name": "getStateVariable",
      "outputs": [
        {
          "internalType": "uint256",
          "name": "",
          "type": "uint256"
        }
      ],
      "stateMutability": "view",
      "type": "function"
    },
    {
      "inputs": [
        {
          "internalType": "uint256",
          "name": "_constantValue",
          "type": "uint256"
        },
        {
          "internalType": "uint256",
          "name": "_stateVariable",
          "type": "uint256"
        }
      ],
      "name": "initialize",
      "outputs": [],
      "stateMutability": "nonpayable",
      "type": "function"
    },
    {
      "inputs": [
        {
          "internalType": "uint256",
          "name": "newState",
          "type": "uint256"
        }
      ],
      "name": "setStateVariable",
      "outputs": [],
      "stateMutability": "nonpayable",
      "type": "function"
    }
  ],
  "bytecode": "0x608060405234801561001057600080fd5b50610492806100206000396000f3fe608060405234801561001057600080fd5b506004361061004c5760003560e01c806301cb08c514610051578063936469d61461006d578063dc7e92701461008b578063e4a30116146100a9575b600080fd5b61006b60048036038101906100669190610297565b6100c5565b005b610075610110565b6040516100829190610378565b60405180910390f35b61009361011a565b6040516100a09190610378565b60405180910390f35b6100c360048036038101906100be91906102c0565b610120565b005b60006002549050816002819055507fdc157ecb9ca719aa4aca222559a5af2909e6d4a523df679ee68fab9ce40154168183604051610104929190610393565b60405180910390a15050565b6000600254905090565b60015481565b60008060019054906101000a900460ff161590508080156101515750600160008054906101000a900460ff1660ff16105b8061017e57506101603061025f565b15801561017d5750600160008054906101000a900460ff1660ff16145b5b6101bd576040517f08c379a00000000000000000000000000000000000000000000000000000000081526004016101b490610358565b60405180910390fd5b60016000806101000a81548160ff021916908360ff16021790555080156101fa576001600060016101000a81548160ff0219169083151502179055505b82600181905550801561025a5760008060016101000a81548160ff0219169083151502179055507f7f26b83ff96e1f2b6a682f133852f6798a09c465da95921460cefb38474024986001604051610251919061033d565b60405180910390a15b505050565b6000808273ffffffffffffffffffffffffffffffffffffffff163b119050919050565b60008135905061029181610445565b92915050565b6000602082840312156102a957600080fd5b60006102b784828501610282565b91505092915050565b600080604083850312156102d357600080fd5b60006102e185828601610282565b92505060206102f285828601610282565b9150509250929050565b610305816103e4565b82525050565b6000610318602e836103bc565b9150610323826103f6565b604082019050919050565b610337816103cd565b82525050565b600060208201905061035260008301846102fc565b92915050565b600060208201905081810360008301526103718161030b565b9050919050565b600060208201905061038d600083018461032e565b92915050565b60006040820190506103a8600083018561032e565b6103b5602083018461032e565b9392505050565b600082825260208201905092915050565b6000819050919050565b600060ff82169050919050565b60006103ef826103d7565b9050919050565b7f496e697469616c697a61626c653a20636f6e747261637420697320616c72656160008201527f647920696e697469616c697a6564000000000000000000000000000000000000602082015250565b61044e816103cd565b811461045957600080fd5b5056fea26469706673582212204e9e51b80ea49219a486623f4f6cbc8162fdef8f8d307e697d526cda4de5e0d464736f6c63430008040033",
  "linkReferences": {},
  "deployedLinkReferences": {}
}