{
  "_format": "hh-sol-artifact-1",
  "contractName": "MyContractV2",
  "sourceName": "contracts/MyContractV2.sol",
  "abi": [
    {
      "anonymous": false,
      "inputs": [
        {
          "indexed": false,
          "internalType": "uint8",
          "name": "version",
          "type": "uint8"
        }
      ],
      "name": "Initialized",
      "type": "event"
    },
    {
      "anonymous": false,
      "inputs": [
        {
          "indexed": false,
          "internalType": "uint256",
          "name": "oldValue",
          "type": "uint256"
        },
        {
          "indexed": false,
          "internalType": "uint256",
          "name": "newValue",
          "type": "uint256"
        }
      ],
      "name": "StateVariableChanged",
      "type": "event"
    },
    {
      "inputs": [],
      "name": "constantValue",
      "outputs": [
        {
          "internalType": "uint256",
          "name": "",
          "type": "uint256"
        }
      ],
      "stateMutability": "view",
      "type": "function"
    },
    {
      "inputs": [],
      "name": "getStateVariable",
      "outputs": [
        {
          "internalType": "uint256",
          "name": "",
          "type": "uint256"
        }
      ],
      "stateMutability": "view",
      "type": "function"
    },
    {
      "inputs": [
        {
          "internalType": "uint256",
          "name": "_constantValue",
          "type": "uint256"
        },
        {
          "internalType": "uint256",
          "name": "_stateVariable",
          "type": "uint256"
        }
      ],
      "name": "initialize",
      "outputs": [],
      "stateMutability": "nonpayable",
      "type": "function"
    },
    {
      "inputs": [
        {
          "internalType": "uint256",
          "name": "newState",
          "type": "uint256"
        }
      ],
      "name": "setStateVariable",
      "outputs": [],
      "stateMutability": "nonpayable",
      "type": "function"
    }
  ],
  "bytecode": "0x608060405234801561001057600080fd5b50610527806100206000396000f3fe608060405234801561001057600080fd5b506004361061004c5760003560e01c806301cb08c514610051578063936469d61461006d578063dc7e92701461008b578063e4a30116146100a9575b600080fd5b61006b600480360381019061006691906102a3565b6100c5565b005b61007561011c565b6040516100829190610384565b60405180910390f35b610093610126565b6040516100a09190610384565b60405180910390f35b6100c360048036038101906100be91906102cc565b61012c565b005b600060025490506002826100d991906103d9565b6002819055507fdc157ecb9ca719aa4aca222559a5af2909e6d4a523df679ee68fab9ce4015416818360405161011092919061039f565b60405180910390a15050565b6000600254905090565b60015481565b60008060019054906101000a900460ff1615905080801561015d5750600160008054906101000a900460ff1660ff16105b8061018a575061016c3061026b565b1580156101895750600160008054906101000a900460ff1660ff16145b5b6101c9576040517f08c379a00000000000000000000000000000000000000000000000000000000081526004016101c090610364565b60405180910390fd5b60016000806101000a81548160ff021916908360ff1602179055508015610206576001600060016101000a81548160ff0219169083151502179055505b8260018190555080156102665760008060016101000a81548160ff0219169083151502179055507f7f26b83ff96e1f2b6a682f133852f6798a09c465da95921460cefb3847402498600160405161025d9190610349565b60405180910390a15b505050565b6000808273ffffffffffffffffffffffffffffffffffffffff163b119050919050565b60008135905061029d816104da565b92915050565b6000602082840312156102b557600080fd5b60006102c38482850161028e565b91505092915050565b600080604083850312156102df57600080fd5b60006102ed8582860161028e565b92505060206102fe8582860161028e565b9150509250929050565b6103118161044a565b82525050565b6000610324602e836103c8565b915061032f8261048b565b604082019050919050565b61034381610433565b82525050565b600060208201905061035e6000830184610308565b92915050565b6000602082019050818103600083015261037d81610317565b9050919050565b6000602082019050610399600083018461033a565b92915050565b60006040820190506103b4600083018561033a565b6103c1602083018461033a565b9392505050565b600082825260208201905092915050565b60006103e482610433565b91506103ef83610433565b9250817fffffffffffffffffffffffffffffffffffffffffffffffffffffffffffffffff04831182151516156104285761042761045c565b5b828202905092915050565b6000819050919050565b600060ff82169050919050565b60006104558261043d565b9050919050565b7f4e487b7100000000000000000000000000000000000000000000000000000000600052601160045260246000fd5b7f496e697469616c697a61626c653a20636f6e747261637420697320616c72656160008201527f647920696e697469616c697a6564000000000000000000000000000000000000602082015250565b6104e381610433565b81146104ee57600080fd5b5056fea2646970667358221220d57122370cc95676b74de71b9c6331b41bfc57e96dbde405e55e41600f9040d864736f6c63430008040033",
  "linkReferences": {},
  "deployedLinkReferences": {}
}